{
  "_format": "hh-sol-artifact-1",
  "contractName": "XAIAgentDRC20",
  "sourceName": "contracts/XAIAgentDRC20.sol",
  "abi": [
    {
      "inputs": [
        {
          "internalType": "address",
          "name": "initialOwner",
          "type": "address"
        }
      ],
      "stateMutability": "nonpayable",
      "type": "constructor"
    },
    {
      "inputs": [
        {
          "internalType": "address",
          "name": "spender",
          "type": "address"
        },
        {
          "internalType": "uint256",
          "name": "allowance",
          "type": "uint256"
        },
        {
          "internalType": "uint256",
          "name": "needed",
          "type": "uint256"
        }
      ],
      "name": "ERC20InsufficientAllowance",
      "type": "error"
    },
    {
      "inputs": [
        {
          "internalType": "address",
          "name": "sender",
          "type": "address"
        },
        {
          "internalType": "uint256",
          "name": "balance",
          "type": "uint256"
        },
        {
          "internalType": "uint256",
          "name": "needed",
          "type": "uint256"
        }
      ],
      "name": "ERC20InsufficientBalance",
      "type": "error"
    },
    {
      "inputs": [
        {
          "internalType": "address",
          "name": "approver",
          "type": "address"
        }
      ],
      "name": "ERC20InvalidApprover",
      "type": "error"
    },
    {
      "inputs": [
        {
          "internalType": "address",
          "name": "receiver",
          "type": "address"
        }
      ],
      "name": "ERC20InvalidReceiver",
      "type": "error"
    },
    {
      "inputs": [
        {
          "internalType": "address",
          "name": "sender",
          "type": "address"
        }
      ],
      "name": "ERC20InvalidSender",
      "type": "error"
    },
    {
      "inputs": [
        {
          "internalType": "address",
          "name": "spender",
          "type": "address"
        }
      ],
      "name": "ERC20InvalidSpender",
      "type": "error"
    },
    {
      "inputs": [
        {
          "internalType": "address",
          "name": "owner",
          "type": "address"
        }
      ],
      "name": "OwnableInvalidOwner",
      "type": "error"
    },
    {
      "inputs": [
        {
          "internalType": "address",
          "name": "account",
          "type": "address"
        }
      ],
      "name": "OwnableUnauthorizedAccount",
      "type": "error"
    },
    {
      "anonymous": false,
      "inputs": [
        {
          "indexed": true,
          "internalType": "address",
          "name": "owner",
          "type": "address"
        },
        {
          "indexed": true,
          "internalType": "address",
          "name": "spender",
          "type": "address"
        },
        {
          "indexed": false,
          "internalType": "uint256",
          "name": "value",
          "type": "uint256"
        }
      ],
      "name": "Approval",
      "type": "event"
    },
    {
      "anonymous": false,
      "inputs": [
        {
          "indexed": true,
          "internalType": "address",
          "name": "admin",
          "type": "address"
        }
      ],
      "name": "LockTransferAdminAdded",
      "type": "event"
    },
    {
      "anonymous": false,
      "inputs": [
        {
          "indexed": true,
          "internalType": "address",
          "name": "admin",
          "type": "address"
        }
      ],
      "name": "LockTransferAdminRemoved",
      "type": "event"
    },
    {
      "anonymous": false,
      "inputs": [
        {
          "indexed": true,
          "internalType": "address",
          "name": "previousOwner",
          "type": "address"
        },
        {
          "indexed": true,
          "internalType": "address",
          "name": "newOwner",
          "type": "address"
        }
      ],
      "name": "OwnershipTransferred",
      "type": "event"
    },
    {
      "anonymous": false,
      "inputs": [
        {
          "indexed": true,
          "internalType": "address",
          "name": "from",
          "type": "address"
        },
        {
          "indexed": true,
          "internalType": "address",
          "name": "to",
          "type": "address"
        },
        {
          "indexed": false,
          "internalType": "uint256",
          "name": "amount",
          "type": "uint256"
        },
        {
          "indexed": false,
          "internalType": "uint256",
          "name": "unlockTime",
          "type": "uint256"
        }
      ],
      "name": "TokensLockedAndTransferred",
      "type": "event"
    },
    {
      "anonymous": false,
      "inputs": [
        {
          "indexed": true,
          "internalType": "address",
          "name": "from",
          "type": "address"
        },
        {
          "indexed": true,
          "internalType": "address",
          "name": "to",
          "type": "address"
        },
        {
          "indexed": false,
          "internalType": "uint256",
          "name": "value",
          "type": "uint256"
        }
      ],
      "name": "Transfer",
      "type": "event"
    },
    {
      "inputs": [
        {
          "internalType": "address",
          "name": "admin",
          "type": "address"
        }
      ],
      "name": "addLockTransferAdmin",
      "outputs": [],
      "stateMutability": "nonpayable",
      "type": "function"
    },
    {
      "inputs": [
        {
          "internalType": "address",
          "name": "owner",
          "type": "address"
        },
        {
          "internalType": "address",
          "name": "spender",
          "type": "address"
        }
      ],
      "name": "allowance",
      "outputs": [
        {
          "internalType": "uint256",
          "name": "",
          "type": "uint256"
        }
      ],
      "stateMutability": "view",
      "type": "function"
    },
    {
      "inputs": [
        {
          "internalType": "address",
          "name": "spender",
          "type": "address"
        },
        {
          "internalType": "uint256",
          "name": "value",
          "type": "uint256"
        }
      ],
      "name": "approve",
      "outputs": [
        {
          "internalType": "bool",
          "name": "",
          "type": "bool"
        }
      ],
      "stateMutability": "nonpayable",
      "type": "function"
    },
    {
      "inputs": [
        {
          "internalType": "address",
          "name": "account",
          "type": "address"
        }
      ],
      "name": "balanceOf",
      "outputs": [
        {
          "internalType": "uint256",
          "name": "",
          "type": "uint256"
        }
      ],
      "stateMutability": "view",
      "type": "function"
    },
    {
      "inputs": [
        {
          "internalType": "uint256",
          "name": "amount",
          "type": "uint256"
        }
      ],
      "name": "burn",
      "outputs": [],
      "stateMutability": "nonpayable",
      "type": "function"
    },
    {
      "inputs": [
        {
          "internalType": "address",
          "name": "account",
          "type": "address"
        },
        {
          "internalType": "uint256",
          "name": "amount",
          "type": "uint256"
        }
      ],
      "name": "burnFrom",
      "outputs": [],
      "stateMutability": "nonpayable",
      "type": "function"
    },
    {
      "inputs": [
        {
          "internalType": "address",
          "name": "account",
          "type": "address"
        }
      ],
      "name": "calculateLockedAmount",
      "outputs": [
        {
          "internalType": "uint256",
          "name": "",
          "type": "uint256"
        }
      ],
      "stateMutability": "view",
      "type": "function"
    },
    {
      "inputs": [],
      "name": "decimals",
      "outputs": [
        {
          "internalType": "uint8",
          "name": "",
          "type": "uint8"
        }
      ],
      "stateMutability": "view",
      "type": "function"
    },
    {
      "inputs": [
        {
          "internalType": "address",
          "name": "account",
          "type": "address"
        }
      ],
      "name": "getLockCount",
      "outputs": [
        {
          "internalType": "uint256",
          "name": "",
          "type": "uint256"
        }
      ],
      "stateMutability": "view",
      "type": "function"
    },
    {
      "inputs": [
        {
          "internalType": "address",
          "name": "account",
          "type": "address"
        },
        {
          "internalType": "uint256",
          "name": "index",
          "type": "uint256"
        }
      ],
      "name": "getLockInfo",
      "outputs": [
        {
          "internalType": "uint256",
          "name": "lockedAt",
          "type": "uint256"
        },
        {
          "internalType": "uint256",
          "name": "lockedAmount",
          "type": "uint256"
        },
        {
          "internalType": "uint256",
          "name": "unlockAt",
          "type": "uint256"
        }
      ],
      "stateMutability": "view",
      "type": "function"
    },
    {
      "inputs": [
        {
          "internalType": "address",
          "name": "",
          "type": "address"
        }
      ],
      "name": "lockTransferAdmins",
      "outputs": [
        {
          "internalType": "bool",
          "name": "",
          "type": "bool"
        }
      ],
      "stateMutability": "view",
      "type": "function"
    },
    {
      "inputs": [],
      "name": "name",
      "outputs": [
        {
          "internalType": "string",
          "name": "",
          "type": "string"
        }
      ],
      "stateMutability": "view",
      "type": "function"
    },
    {
      "inputs": [],
      "name": "owner",
      "outputs": [
        {
          "internalType": "address",
          "name": "",
          "type": "address"
        }
      ],
      "stateMutability": "view",
      "type": "function"
    },
    {
      "inputs": [
        {
          "internalType": "address",
          "name": "admin",
          "type": "address"
        }
      ],
      "name": "removeLockTransferAdmin",
      "outputs": [],
      "stateMutability": "nonpayable",
      "type": "function"
    },
    {
      "inputs": [],
      "name": "renounceOwnership",
      "outputs": [],
      "stateMutability": "nonpayable",
      "type": "function"
    },
    {
      "inputs": [],
      "name": "symbol",
      "outputs": [
        {
          "internalType": "string",
          "name": "",
          "type": "string"
        }
      ],
      "stateMutability": "view",
      "type": "function"
    },
    {
      "inputs": [
        {
          "internalType": "address",
          "name": "account",
          "type": "address"
        }
      ],
      "name": "totalLockedBalance",
      "outputs": [
        {
          "internalType": "uint256",
          "name": "",
          "type": "uint256"
        }
      ],
      "stateMutability": "view",
      "type": "function"
    },
    {
      "inputs": [],
      "name": "totalSupply",
      "outputs": [
        {
          "internalType": "uint256",
          "name": "",
          "type": "uint256"
        }
      ],
      "stateMutability": "view",
      "type": "function"
    },
    {
      "inputs": [
        {
          "internalType": "address",
          "name": "to",
          "type": "address"
        },
        {
          "internalType": "uint256",
          "name": "value",
          "type": "uint256"
        }
      ],
      "name": "transfer",
      "outputs": [
        {
          "internalType": "bool",
          "name": "",
          "type": "bool"
        }
      ],
      "stateMutability": "nonpayable",
      "type": "function"
    },
    {
      "inputs": [
        {
          "internalType": "address",
          "name": "to",
          "type": "address"
        },
        {
          "internalType": "uint256",
          "name": "amount",
          "type": "uint256"
        },
        {
          "internalType": "uint256",
          "name": "lockSeconds",
          "type": "uint256"
        }
      ],
      "name": "transferAndLock",
      "outputs": [],
      "stateMutability": "nonpayable",
      "type": "function"
    },
    {
      "inputs": [
        {
          "internalType": "address",
          "name": "from",
          "type": "address"
        },
        {
          "internalType": "address",
          "name": "to",
          "type": "address"
        },
        {
          "internalType": "uint256",
          "name": "value",
          "type": "uint256"
        }
      ],
      "name": "transferFrom",
      "outputs": [
        {
          "internalType": "bool",
          "name": "",
          "type": "bool"
        }
      ],
      "stateMutability": "nonpayable",
      "type": "function"
    },
    {
      "inputs": [
        {
          "internalType": "address",
          "name": "newOwner",
          "type": "address"
        }
      ],
      "name": "transferOwnership",
      "outputs": [],
      "stateMutability": "nonpayable",
      "type": "function"
    }
  ],
  "bytecode": "0x60806040523480156200001157600080fd5b50604051620018893803806200188983398101604081905262000034916200043a565b80604051806040016040528060088152602001671610525059d95b9d60c21b8152506040518060400160405280600381526020016258414160e81b815250816003908162000083919062000510565b50600462000092828262000510565b5050506001600160a01b038116620000c557604051631e4fbdf760e01b8152600060048201526024015b60405180910390fd5b620000d08162000102565b50620000fb81620000e46012600a620006f1565b620000f59064174876e80062000702565b62000154565b506200077a565b600580546001600160a01b038381166001600160a01b0319831681179093556040519116919082907f8be0079c531659141344cd1fd0a4f28419497f9722a3daafe3b4186f6b6457e090600090a35050565b6001600160a01b038216620001805760405163ec442f0560e01b815260006004820152602401620000bc565b6200018e6000838362000192565b5050565b6001600160a01b038316156200024d576000620001af846200025f565b9050600081620001d4866001600160a01b031660009081526020819052604090205490565b620001e091906200071c565b9050828110156200024a5760405162461bcd60e51b815260206004820152602d60248201527f5841413a207472616e7366657220616d6f756e74206578636565647320756e6c60448201526c6f636b65642062616c616e636560981b6064820152608401620000bc565b50505b6200025a83838362000307565b505050565b6001600160a01b038116600090815260066020526040812081805b8254811015620002ff5782818154811062000299576200029962000732565b906000526020600020906003020160020154421015620002ea57828181548110620002c857620002c862000732565b90600052602060002090600302016001015482620002e7919062000748565b91505b80620002f6816200075e565b9150506200027a565b509392505050565b6001600160a01b038316620003365780600260008282546200032a919062000748565b90915550620003aa9050565b6001600160a01b038316600090815260208190526040902054818110156200038b5760405163391434e360e21b81526001600160a01b03851660048201526024810182905260448101839052606401620000bc565b6001600160a01b03841660009081526020819052604090209082900390555b6001600160a01b038216620003c857600280548290039055620003e7565b6001600160a01b03821660009081526020819052604090208054820190555b816001600160a01b0316836001600160a01b03167fddf252ad1be2c89b69c2b068fc378daa952ba7f163c4a11628f55a4df523b3ef836040516200042d91815260200190565b60405180910390a3505050565b6000602082840312156200044d57600080fd5b81516001600160a01b03811681146200046557600080fd5b9392505050565b634e487b7160e01b600052604160045260246000fd5b600181811c908216806200049757607f821691505b602082108103620004b857634e487b7160e01b600052602260045260246000fd5b50919050565b601f8211156200025a57600081815260208120601f850160051c81016020861015620004e75750805b601f850160051c820191505b818110156200050857828155600101620004f3565b505050505050565b81516001600160401b038111156200052c576200052c6200046c565b62000544816200053d845462000482565b84620004be565b602080601f8311600181146200057c5760008415620005635750858301515b600019600386901b1c1916600185901b17855562000508565b600085815260208120601f198616915b82811015620005ad578886015182559484019460019091019084016200058c565b5085821015620005cc5787850151600019600388901b60f8161c191681555b5050505050600190811b01905550565b634e487b7160e01b600052601160045260246000fd5b600181815b8085111562000633578160001904821115620006175762000617620005dc565b808516156200062557918102915b93841c9390800290620005f7565b509250929050565b6000826200064c57506001620006eb565b816200065b57506000620006eb565b81600181146200067457600281146200067f576200069f565b6001915050620006eb565b60ff841115620006935762000693620005dc565b50506001821b620006eb565b5060208310610133831016604e8410600b8410161715620006c4575081810a620006eb565b620006d08383620005f2565b8060001904821115620006e757620006e7620005dc565b0290505b92915050565b60006200046560ff8416836200063b565b8082028115828204841417620006eb57620006eb620005dc565b81810381811115620006eb57620006eb620005dc565b634e487b7160e01b600052603260045260246000fd5b80820180821115620006eb57620006eb620005dc565b600060018201620007735762000773620005dc565b5060010190565b6110ff806200078a6000396000f3fe608060405234801561001057600080fd5b50600436106101425760003560e01c8063715018a6116100b857806395d89b411161007c57806395d89b41146102d7578063971f368d146102df578063a9059cbb146102f2578063d86f0fae14610305578063dd62ed3e14610328578063f2fde38b1461036157600080fd5b8063715018a61461027b57806379cc67901461028357806384d5d944146102965780638ce81525146102a95780638da5cb5b146102bc57600080fd5b806318160ddd1161010a57806318160ddd146101ec57806323b872dd146101f457806323c1ee4314610207578063313ce5671461023057806342966c681461023f57806370a082311461025257600080fd5b806306fdde031461014757806307cce9171461016557806308c4975514610186578063095ea7b31461019b57806315b9672c146101be575b600080fd5b61014f610374565b60405161015c9190610eb3565b60405180910390f35b610178610173366004610f1d565b610406565b60405190815260200161015c565b610199610194366004610f1d565b610417565b005b6101ae6101a9366004610f3f565b6104d5565b604051901515815260200161015c565b6101d16101cc366004610f3f565b6104ed565b6040805193845260208401929092529082015260600161015c565b600254610178565b6101ae610202366004610f69565b6105af565b610178610215366004610f1d565b6001600160a01b031660009081526006602052604090205490565b6040516012815260200161015c565b61019961024d366004610fa5565b6105d3565b610178610260366004610f1d565b6001600160a01b031660009081526020819052604090205490565b6101996105e0565b610199610291366004610f3f565b6105f4565b6101996102a4366004610fbe565b61060d565b6101996102b7366004610f1d565b610846565b6005546040516001600160a01b03909116815260200161015c565b61014f610964565b6101786102ed366004610f1d565b610973565b6101ae610300366004610f3f565b610a0e565b6101ae610313366004610f1d565b60076020526000908152604090205460ff1681565b610178610336366004610ff1565b6001600160a01b03918216600090815260016020908152604080832093909416825291909152205490565b61019961036f366004610f1d565b610a1c565b60606003805461038390611024565b80601f01602080910402602001604051908101604052809291908181526020018280546103af90611024565b80156103fc5780601f106103d1576101008083540402835291602001916103fc565b820191906000526020600020905b8154815290600101906020018083116103df57829003601f168201915b5050505050905090565b600061041182610973565b92915050565b61041f610a57565b6001600160a01b03811660009081526007602052604090205460ff1661048c5760405162461bcd60e51b815260206004820152601e60248201527f5841413a206e6f742061206c6f636b207472616e736665722061646d696e000060448201526064015b60405180910390fd5b6001600160a01b038116600081815260076020526040808220805460ff19169055517f7446c7a50af9de1c10e621497f5b7c9badd01e8fa9fa60808d58814fea9835c09190a250565b6000336104e3818585610a84565b5060019392505050565b6001600160a01b0382166000908152600660205260408120548190819084106105585760405162461bcd60e51b815260206004820152601d60248201527f5841413a206c6f636b20696e646578206f7574206f6620626f756e64730000006044820152606401610483565b6001600160a01b03851660009081526006602052604081208054869081106105825761058261105e565b90600052602060002090600302019050806000015481600101548260020154935093509350509250925092565b6000336105bd858285610a96565b6105c8858585610b14565b506001949350505050565b6105dd3382610b73565b50565b6105e8610a57565b6105f26000610ba9565b565b6105ff823383610a96565b6106098282610b73565b5050565b3360009081526007602052604090205460ff1661067d5760405162461bcd60e51b815260206004820152602860248201527f5841413a2063616c6c6572206973206e6f742061206c6f636b207472616e736660448201526732b91030b236b4b760c11b6064820152608401610483565b6001600160a01b0383166106d35760405162461bcd60e51b815260206004820152601d60248201527f5841413a207472616e7366657220746f207a65726f20616464726573730000006044820152606401610483565b600082116107235760405162461bcd60e51b815260206004820152601c60248201527f5841413a20616d6f756e74206d75737420626520706f736974697665000000006044820152606401610483565b6000811161077f5760405162461bcd60e51b815260206004820152602360248201527f5841413a206c6f636b206475726174696f6e206d75737420626520706f73697460448201526269766560e81b6064820152608401610483565b600061078b824261108a565b6040805160608101825242815260208082018781528284018581526001600160a01b038a1660009081526006845294852080546001808201835591875293909520845160039094020192835590519382019390935591516002909201919091559091506107f9338686610b14565b60408051858152602081018490526001600160a01b0387169133917f7e37323de77794dbdcfe2b33eab001f20769eed2ebf10e6c53a72b989870460e910160405180910390a35050505050565b61084e610a57565b6001600160a01b0381166108a45760405162461bcd60e51b815260206004820152601a60248201527f5841413a2061646d696e206973207a65726f20616464726573730000000000006044820152606401610483565b6001600160a01b03811660009081526007602052604090205460ff16156109185760405162461bcd60e51b815260206004820152602260248201527f5841413a20616c72656164792061206c6f636b207472616e736665722061646d60448201526134b760f11b6064820152608401610483565b6001600160a01b038116600081815260076020526040808220805460ff19166001179055517fd2ed65980218deca3f311aa98042e107a6aaf4ba59433a5fac9fcaf606eb24569190a250565b60606004805461038390611024565b6001600160a01b038116600090815260066020526040812081805b8254811015610a06578281815481106109a9576109a961105e565b9060005260206000209060030201600201544210156109f4578281815481106109d4576109d461105e565b906000526020600020906003020160010154826109f1919061108a565b91505b806109fe8161109d565b91505061098e565b509392505050565b6000336104e3818585610b14565b610a24610a57565b6001600160a01b038116610a4e57604051631e4fbdf760e01b815260006004820152602401610483565b6105dd81610ba9565b6005546001600160a01b031633146105f25760405163118cdaa760e01b8152336004820152602401610483565b610a918383836001610bfb565b505050565b6001600160a01b038381166000908152600160209081526040808320938616835292905220546000198114610b0e5781811015610aff57604051637dc7a0d960e11b81526001600160a01b03841660048201526024810182905260448101839052606401610483565b610b0e84848484036000610bfb565b50505050565b6001600160a01b038316610b3e57604051634b637e8f60e11b815260006004820152602401610483565b6001600160a01b038216610b685760405163ec442f0560e01b815260006004820152602401610483565b610a91838383610cd0565b6001600160a01b038216610b9d57604051634b637e8f60e11b815260006004820152602401610483565b61060982600083610cd0565b600580546001600160a01b038381166001600160a01b0319831681179093556040519116919082907f8be0079c531659141344cd1fd0a4f28419497f9722a3daafe3b4186f6b6457e090600090a35050565b6001600160a01b038416610c255760405163e602df0560e01b815260006004820152602401610483565b6001600160a01b038316610c4f57604051634a1406b160e11b815260006004820152602401610483565b6001600160a01b0380851660009081526001602090815260408083209387168352929052208290558015610b0e57826001600160a01b0316846001600160a01b03167f8c5be1e5ebec7d5bd14f71427d1e84f3dd0314c0f7b2291e5b200ac8c7c3b92584604051610cc291815260200190565b60405180910390a350505050565b6001600160a01b03831615610d83576000610cea84610973565b9050600081610d0e866001600160a01b031660009081526020819052604090205490565b610d1891906110b6565b905082811015610d805760405162461bcd60e51b815260206004820152602d60248201527f5841413a207472616e7366657220616d6f756e74206578636565647320756e6c60448201526c6f636b65642062616c616e636560981b6064820152608401610483565b50505b610a918383836001600160a01b038316610db4578060026000828254610da9919061108a565b90915550610e269050565b6001600160a01b03831660009081526020819052604090205481811015610e075760405163391434e360e21b81526001600160a01b03851660048201526024810182905260448101839052606401610483565b6001600160a01b03841660009081526020819052604090209082900390555b6001600160a01b038216610e4257600280548290039055610e61565b6001600160a01b03821660009081526020819052604090208054820190555b816001600160a01b0316836001600160a01b03167fddf252ad1be2c89b69c2b068fc378daa952ba7f163c4a11628f55a4df523b3ef83604051610ea691815260200190565b60405180910390a3505050565b600060208083528351808285015260005b81811015610ee057858101830151858201604001528201610ec4565b506000604082860101526040601f19601f8301168501019250505092915050565b80356001600160a01b0381168114610f1857600080fd5b919050565b600060208284031215610f2f57600080fd5b610f3882610f01565b9392505050565b60008060408385031215610f5257600080fd5b610f5b83610f01565b946020939093013593505050565b600080600060608486031215610f7e57600080fd5b610f8784610f01565b9250610f9560208501610f01565b9150604084013590509250925092565b600060208284031215610fb757600080fd5b5035919050565b600080600060608486031215610fd357600080fd5b610fdc84610f01565b95602085013595506040909401359392505050565b6000806040838503121561100457600080fd5b61100d83610f01565b915061101b60208401610f01565b90509250929050565b600181811c9082168061103857607f821691505b60208210810361105857634e487b7160e01b600052602260045260246000fd5b50919050565b634e487b7160e01b600052603260045260246000fd5b634e487b7160e01b600052601160045260246000fd5b8082018082111561041157610411611074565b6000600182016110af576110af611074565b5060010190565b818103818111156104115761041161107456fea26469706673582212207ace7c42dfb9ebd85dbef6007694177805c814953c0d602740b0dd0c9e76692564736f6c63430008140033",
  "linkReferences": {},
  "deployedLinkReferences": {}
}